{
  "contractName": "TimeLockedWallet",
  "abi": [
    {
      "constant": true,
      "inputs": [],
      "name": "creator",
      "outputs": [
        {
          "name": "",
          "type": "address"
        }
      ],
      "payable": false,
      "stateMutability": "view",
      "type": "function"
    },
    {
      "constant": true,
      "inputs": [],
      "name": "unlockDate",
      "outputs": [
        {
          "name": "",
          "type": "uint256"
        }
      ],
      "payable": false,
      "stateMutability": "view",
      "type": "function"
    },
    {
      "constant": true,
      "inputs": [],
      "name": "owner",
      "outputs": [
        {
          "name": "",
          "type": "address"
        }
      ],
      "payable": false,
      "stateMutability": "view",
      "type": "function"
    },
    {
      "constant": true,
      "inputs": [],
      "name": "createdAt",
      "outputs": [
        {
          "name": "",
          "type": "uint256"
        }
      ],
      "payable": false,
      "stateMutability": "view",
      "type": "function"
    },
    {
      "inputs": [
        {
          "name": "_creator",
          "type": "address"
        },
        {
          "name": "_owner",
          "type": "address"
        },
        {
          "name": "_unlockDate",
          "type": "uint256"
        }
      ],
      "payable": false,
      "stateMutability": "nonpayable",
      "type": "constructor"
    },
    {
      "payable": true,
      "stateMutability": "payable",
      "type": "fallback"
    },
    {
      "anonymous": false,
      "inputs": [
        {
          "indexed": false,
          "name": "from",
          "type": "address"
        },
        {
          "indexed": false,
          "name": "amount",
          "type": "uint256"
        }
      ],
      "name": "Received",
      "type": "event"
    },
    {
      "anonymous": false,
      "inputs": [
        {
          "indexed": false,
          "name": "to",
          "type": "address"
        },
        {
          "indexed": false,
          "name": "amount",
          "type": "uint256"
        }
      ],
      "name": "Withdrew",
      "type": "event"
    },
    {
      "anonymous": false,
      "inputs": [
        {
          "indexed": false,
          "name": "tokenContract",
          "type": "address"
        },
        {
          "indexed": false,
          "name": "to",
          "type": "address"
        },
        {
          "indexed": false,
          "name": "amount",
          "type": "uint256"
        }
      ],
      "name": "WithdrewTokens",
      "type": "event"
    },
    {
      "constant": false,
      "inputs": [],
      "name": "withdraw",
      "outputs": [],
      "payable": false,
      "stateMutability": "nonpayable",
      "type": "function"
    },
    {
      "constant": false,
      "inputs": [
        {
          "name": "_tokenContract",
          "type": "address"
        }
      ],
      "name": "withdrawTokens",
      "outputs": [],
      "payable": false,
      "stateMutability": "nonpayable",
      "type": "function"
    },
    {
      "constant": true,
      "inputs": [],
      "name": "info",
      "outputs": [
        {
          "name": "",
          "type": "address"
        },
        {
          "name": "",
          "type": "address"
        },
        {
          "name": "",
          "type": "uint256"
        },
        {
          "name": "",
          "type": "uint256"
        },
        {
          "name": "",
          "type": "uint256"
        }
      ],
      "payable": false,
      "stateMutability": "view",
      "type": "function"
    }
  ],
  "bytecode": "0x608060405234801561001057600080fd5b506040516060806104ea83398101604090815281516020830151919092015160008054600160a060020a03948516600160a060020a0319918216179091556001805494909316931692909217905560025542600355610476806100746000396000f3006080604052600436106100825763ffffffff7c010000000000000000000000000000000000000000000000000000000060003504166302d05d3f81146100be578063370158ea146100ef5780633ccfd60b1461013b57806349df728c1461015257806369ac5721146101735780638da5cb5b1461019a578063cf09e0d0146101af575b6040805133815234602082015281517f88a5966d370b9919b20f3e2c13ff65706f196a4e32cc2c12bf57088f88525874929181900390910190a1005b3480156100ca57600080fd5b506100d36101c4565b60408051600160a060020a039092168252519081900360200190f35b3480156100fb57600080fd5b506101046101d3565b60408051600160a060020a039687168152949095166020850152838501929092526060830152608082015290519081900360a00190f35b34801561014757600080fd5b506101506101f8565b005b34801561015e57600080fd5b50610150600160a060020a0360043516610289565b34801561017f57600080fd5b5061018861042f565b60408051918252519081900360200190f35b3480156101a657600080fd5b506100d3610435565b3480156101bb57600080fd5b50610188610444565b600054600160a060020a031681565b600054600154600254600354600160a060020a03938416949390921692909190303190565b600154600160a060020a0316331461020f57600080fd5b60025442101561021e57600080fd5b6040513390303180156108fc02916000818181858888f1935050505015801561024b573d6000803e3d6000fd5b50604080513381523031602082015281517fb244b9a17ad633c6e83b7983ee04320484956a68ddbe96a0b70dfca1cf19d723929181900390910190a1565b6001546000908190600160a060020a031633146102a557600080fd5b6002544210156102b457600080fd5b604080517f70a082310000000000000000000000000000000000000000000000000000000081523060048201529051849350600160a060020a038416916370a082319160248083019260209291908290030181600087803b15801561031857600080fd5b505af115801561032c573d6000803e3d6000fd5b505050506040513d602081101561034257600080fd5b5051600154604080517fa9059cbb000000000000000000000000000000000000000000000000000000008152600160a060020a0392831660048201526024810184905290519293509084169163a9059cbb916044808201926020929091908290030181600087803b1580156103b657600080fd5b505af11580156103ca573d6000803e3d6000fd5b505050506040513d60208110156103e057600080fd5b505060408051600160a060020a038516815233602082015280820183905290517fa04c965e7d289704527a948915777d68bb4530fb4b08aa935fb958c0b7901ab99181900360600190a1505050565b60025481565b600154600160a060020a031681565b600354815600a165627a7a72305820955dfa0d842845407a1c100d88447d1499d414d1dbde3d03ae7fd942d93e4d9c0029",
  "source": "pragma solidity ^0.4.18;\n\nimport \"./ERC20.sol\";\n\ncontract TimeLockedWallet {\n    address public creator;\n    address public owner;\n    uint256 public unlockDate;\n    uint256 public createdAt;\n\n    modifier onlyOwner() {\n        require(msg.sender == owner);\n        _;\n    }\n\n    function TimeLockedWallet(\n        address _creator,\n        address _owner,\n        uint256 _unlockDate\n    ) public {\n        creator = _creator;\n        owner = _owner;\n        unlockDate = _unlockDate;\n        createdAt = now;\n    }\n\n    // keep all the ether sent to this address\n    function() public payable {\n        Received(msg.sender, msg.value);\n    }\n\n    // callable by owner only, after specified time\n    function withdraw() public onlyOwner {\n        require(now >= unlockDate);\n        //now send all the balance\n        msg.sender.transfer(this.balance);\n        Withdrew(msg.sender, this.balance);\n    }\n\n    // callable by owner only, after specified time, only for Tokens implementing ERC20\n    function withdrawTokens(address _tokenContract) public onlyOwner {\n        require(now >= unlockDate);\n        ERC20 token = ERC20(_tokenContract);\n        //now send all the token balance\n        uint256 tokenBalance = token.balanceOf(this);\n        token.transfer(owner, tokenBalance);\n        WithdrewTokens(_tokenContract, msg.sender, tokenBalance);\n    }\n\n    function info()\n        public\n        view\n        returns (\n            address,\n            address,\n            uint256,\n            uint256,\n            uint256\n        )\n    {\n        return (creator, owner, unlockDate, createdAt, this.balance);\n    }\n\n    event Received(address from, uint256 amount);\n    event Withdrew(address to, uint256 amount);\n    event WithdrewTokens(address tokenContract, address to, uint256 amount);\n}\n",
  "sourcePath": "/home/c0d3gl17ch/Programs/blockchain/xfr/contracts/TimeLockedWallet.sol",
  "compiler": {
    "name": "solc",
    "version": "0.4.26+commit.4563c3fc.Emscripten.clang"
  },
  "schemaVersion": "3.4.7",
  "updatedAt": "2022-05-08T18:28:49.399Z",
  "devdoc": {
    "methods": {}
  },
  "userdoc": {
    "methods": {}
  }
}