{
  "contractName": "TimeLockedWalletFactory",
  "abi": [
    {
      "payable": false,
      "stateMutability": "nonpayable",
      "type": "fallback"
    },
    {
      "anonymous": false,
      "inputs": [
        {
          "indexed": false,
          "name": "wallet",
          "type": "address"
        },
        {
          "indexed": false,
          "name": "from",
          "type": "address"
        },
        {
          "indexed": false,
          "name": "to",
          "type": "address"
        },
        {
          "indexed": false,
          "name": "createdAt",
          "type": "uint256"
        },
        {
          "indexed": false,
          "name": "unlockDate",
          "type": "uint256"
        },
        {
          "indexed": false,
          "name": "amount",
          "type": "uint256"
        }
      ],
      "name": "Created",
      "type": "event"
    },
    {
      "constant": true,
      "inputs": [
        {
          "name": "_user",
          "type": "address"
        }
      ],
      "name": "getWallets",
      "outputs": [
        {
          "name": "",
          "type": "address[]"
        }
      ],
      "payable": false,
      "stateMutability": "view",
      "type": "function"
    },
    {
      "constant": true,
      "inputs": [],
      "name": "getTimestamp",
      "outputs": [
        {
          "name": "",
          "type": "uint256"
        }
      ],
      "payable": false,
      "stateMutability": "view",
      "type": "function"
    },
    {
      "constant": false,
      "inputs": [
        {
          "name": "_owner",
          "type": "address"
        },
        {
          "name": "_unlockDate",
          "type": "uint256"
        }
      ],
      "name": "newTimeLockedWallet",
      "outputs": [
        {
          "name": "wallet",
          "type": "address"
        }
      ],
      "payable": true,
      "stateMutability": "payable",
      "type": "function"
    }
  ],
  "bytecode": "0x608060405234801561001057600080fd5b50610855806100206000396000f3006080604052600436106100565763ffffffff7c01000000000000000000000000000000000000000000000000000000006000350416630a9ef9278114610068578063188ec3561461009b578063422c29a4146100c2575b34801561006257600080fd5b50600080fd5b61007f600160a060020a0360043516602435610133565b60408051600160a060020a039092168252519081900360200190f35b3480156100a757600080fd5b506100b06102b4565b60408051918252519081900360200190f35b3480156100ce57600080fd5b506100e3600160a060020a03600435166102bb565b60408051602080825283518183015283519192839290830191858101910280838360005b8381101561011f578181015183820152602001610107565b505050509050019250505060405180910390f35b600033838361014061032f565b600160a060020a039384168152919092166020820152604080820192909252905190819003606001906000f08015801561017e573d6000803e3d6000fd5b503360008181526020818152604082208054600181018255908352912001805473ffffffffffffffffffffffffffffffffffffffff1916600160a060020a03848116919091179091559192509084161461021c57600160a060020a0383811660009081526020818152604082208054600181018255908352912001805473ffffffffffffffffffffffffffffffffffffffff19169183169190911790555b604051600160a060020a038216903480156108fc02916000818181858888f19350505050158015610251573d6000803e3d6000fd5b5060408051600160a060020a038084168252336020830152851681830152426060820152608081018490523460a082015290517f14d5db8c1f746c7adcbcd13cf8945dd2ac6ad58be52380b8c4933c876f76e1bf9181900360c00190a192915050565b6064420190565b600160a060020a0381166000908152602081815260409182902080548351818402810184019094528084526060939283018282801561032357602002820191906000526020600020905b8154600160a060020a03168152600190910190602001808311610305575b50505050509050919050565b6040516104ea80610340833901905600608060405234801561001057600080fd5b506040516060806104ea83398101604090815281516020830151919092015160008054600160a060020a03948516600160a060020a0319918216179091556001805494909316931692909217905560025542600355610476806100746000396000f3006080604052600436106100825763ffffffff7c010000000000000000000000000000000000000000000000000000000060003504166302d05d3f81146100be578063370158ea146100ef5780633ccfd60b1461013b57806349df728c1461015257806369ac5721146101735780638da5cb5b1461019a578063cf09e0d0146101af575b6040805133815234602082015281517f88a5966d370b9919b20f3e2c13ff65706f196a4e32cc2c12bf57088f88525874929181900390910190a1005b3480156100ca57600080fd5b506100d36101c4565b60408051600160a060020a039092168252519081900360200190f35b3480156100fb57600080fd5b506101046101d3565b60408051600160a060020a039687168152949095166020850152838501929092526060830152608082015290519081900360a00190f35b34801561014757600080fd5b506101506101f8565b005b34801561015e57600080fd5b50610150600160a060020a0360043516610289565b34801561017f57600080fd5b5061018861042f565b60408051918252519081900360200190f35b3480156101a657600080fd5b506100d3610435565b3480156101bb57600080fd5b50610188610444565b600054600160a060020a031681565b600054600154600254600354600160a060020a03938416949390921692909190303190565b600154600160a060020a0316331461020f57600080fd5b60025442101561021e57600080fd5b6040513390303180156108fc02916000818181858888f1935050505015801561024b573d6000803e3d6000fd5b50604080513381523031602082015281517fb244b9a17ad633c6e83b7983ee04320484956a68ddbe96a0b70dfca1cf19d723929181900390910190a1565b6001546000908190600160a060020a031633146102a557600080fd5b6002544210156102b457600080fd5b604080517f70a082310000000000000000000000000000000000000000000000000000000081523060048201529051849350600160a060020a038416916370a082319160248083019260209291908290030181600087803b15801561031857600080fd5b505af115801561032c573d6000803e3d6000fd5b505050506040513d602081101561034257600080fd5b5051600154604080517fa9059cbb000000000000000000000000000000000000000000000000000000008152600160a060020a0392831660048201526024810184905290519293509084169163a9059cbb916044808201926020929091908290030181600087803b1580156103b657600080fd5b505af11580156103ca573d6000803e3d6000fd5b505050506040513d60208110156103e057600080fd5b505060408051600160a060020a038516815233602082015280820183905290517fa04c965e7d289704527a948915777d68bb4530fb4b08aa935fb958c0b7901ab99181900360600190a1505050565b60025481565b600154600160a060020a031681565b600354815600a165627a7a72305820955dfa0d842845407a1c100d88447d1499d414d1dbde3d03ae7fd942d93e4d9c0029a165627a7a72305820d3c66d953133e49a2914f056b8b652ac7cfbb382101f6ae11622e8a17aa244820029",
  "source": "pragma solidity ^0.4.18;\n\nimport \"./TimeLockedWallet.sol\";\n\ncontract TimeLockedWalletFactory {\n    mapping(address => address[]) wallets;\n\n    function getWallets(address _user) public view returns (address[]) {\n        return wallets[_user];\n    }\n\n    function getTimestamp() external view returns (uint256) {\n        return block.timestamp + 100;\n    }\n\n    function newTimeLockedWallet(address _owner, uint256 _unlockDate)\n        public\n        payable\n        returns (address wallet)\n    {\n        // Create new wallet.\n        wallet = new TimeLockedWallet(msg.sender, _owner, _unlockDate);\n\n        // Add wallet to sender's wallets.\n        wallets[msg.sender].push(wallet);\n\n        // If owner is the same as sender then add wallet to sender's wallets too.\n        if (msg.sender != _owner) {\n            wallets[_owner].push(wallet);\n        }\n\n        // Send ether from this transaction to the created contract.\n        wallet.transfer(msg.value);\n\n        // Emit event.\n        Created(wallet, msg.sender, _owner, now, _unlockDate, msg.value);\n    }\n\n    // Prevents accidental sending of ether to the factory\n    function() public {\n        revert();\n    }\n\n    event Created(\n        address wallet,\n        address from,\n        address to,\n        uint256 createdAt,\n        uint256 unlockDate,\n        uint256 amount\n    );\n}\n",
  "sourcePath": "/home/c0d3gl17ch/Programs/blockchain/xfr/contracts/TimeLockedWalletFactory.sol",
  "compiler": {
    "name": "solc",
    "version": "0.4.26+commit.4563c3fc.Emscripten.clang"
  },
  "schemaVersion": "3.4.7",
  "updatedAt": "2022-05-30T17:35:03.914Z",
  "networkType": "ethereum",
  "devdoc": {
    "methods": {}
  },
  "userdoc": {
    "methods": {}
  }
}